:100000000C9434000C9450000C9450000C9450004C
:100010000C9450000C9450000C9450000C94500020
:100020000C9450000C9450000C9450000C94500010
:100030000C9450000C9450000C9450000C94500000
:100040000C9450000C9450000C9450000C945000F0
:100050000C9450000C9450000C9450000C945000E0
:100060000C9450000C94500011241FBECFEFD8E028
:10007000DEBFCDBF0E9440000C943E00F894FFCF3D
:1000800084B18D7F84B987B1806487B9199B04C01E
:1000900088B1806488B9FACF88B18F7B88B9F6CFF0
:0400A0000C940000BC
:00000001FF
